:1000000014C019C018C017C016C015C014C013C042
:1000100012C011C010C00FC00EC00DC00CC00BC06C
:100020000AC009C008C007C006C011241FBECFED1A
:10003000CDBF4AD05EC0E4CFCF93DF9300D0CDB721
:10004000DD27919A929A22E030E03A832983880F43
:10005000991F880F991F29813A81A901415051099F
:100060005A834983232B91F020E030E003C0C39AE8
:100070002F5F3F4F28173907D4F320E030E02817CF
:1000800039074CF7C3982F5F3F4FF9CF919892985B
:10009000CE5FCDBFDF91CF910895CF93DF9300D096
:1000A000CDB7DD2782E390E09A83898389819A81A5
:1000B0009C01215031093A832983892BB9F7CE5FFE
:1000C000CDBFDF91CF910895899A8A9A919892989D
:1000D000BB9AC398D898D09AE0DFD09880E090E09F
:1000E000C89B05C08D319105B4F3A6DFF4CF01960E
:0600F000F7CFF894FFCFEA
:00000001FF
