:1000000012C02CC064C02AC029C0ECC027C026C0C2
:1000100045C024C023C022C021C020C01FC01EC0B4
:100020001DC01CC01BC011241FBECFE5D2E0DEBF27
:10003000CDBF10E0A0E6B0E0EEE4F2E002C0059033
:100040000D92A436B107D9F720E0A4E6B0E001C0D4
:100050001D92AB37B207E1F7D4D0F7C0D1CF809370
:100060006400809164008111FCCF08950F931F9369
:1000700000E010E09801061717072807390759F024
:10008000EFECF7E03197F1F700C000000F5F1F4F72
:100090002F4F3F4FF0CF1F910F9108951F920F9256
:1000A0000FB60F9211248F93809164008FB9109234
:1000B0006400769A8F910F900FBE0F901F90189545
:1000C00080E885BB81E083BF08951BBA08950F9235
:1000D0000FB68F9382B78093670084B380936800D4
:1000E0008BB78F7E8BBF8F910FBE0F901895F894B2
:1000F00021E030E002C0220F331F8A95E2F7A22FE1
:1001000023BD8BB780618BBF8FEF9FEF909368000B
:10011000809367007894E2E040E050E06FEF7FEF7B
:10012000F22FF0956E98000000000000F894A3BD37
:100130008AB780628ABF8BB780628BBF709368007A
:100140006093670014BA12BE78948AB38F238ABB77
:100150008BB3822B8BBB89B390E082239323892BB3
:10016000D1F36E9A13BC8AB3822B8ABB8BB38F23D5
:100170008BBB80916700909168008F3FBFEF9B071A
:1001800021F42BB72F7E2BBF0895809167009091AB
:100190006800480F591F000000000000E13011F016
:1001A000E1E0C0CFCA010895CF93C82FA0DF8F3FF1
:1001B0002FEF920781F0EC2FF0E0EE0FFF1FE559D3
:1001C000FF4F20813181821B930B97FD07C08F3F2A
:1001D000910531F028F08FEF90E002C080E090E0D0
:1001E000CF9108951F920F920FB60F9211248F9303
:1001F0008AB58F5F8ABD8F910F900FBE0F901F90B1
:100200001895F89480E888BD18BC1BBA59DF88E5BA
:100210008DB9B99A87B3827F87BB789481E41FDF59
:1002200081E41DDF10926900E0916900F0E0EE5971
:10023000FF4F8081882339F012DF809169008F5F42
:0E02400080936900F1CF0BDFE9CFF894FFCF78
:04024E0001000A00A1
:00000001FF
