:1000000012C02CC061C12AC029C049C027C026C067
:1000100025C024C023C022C021C020C01FC01EC0D4
:100020001DC01CC01BC011241FBECFE5D2E0DEBF27
:10003000CDBF10E0A0E6B0E0ECE3F7E002C0059031
:100040000D92A436B107D9F720E0A4E6B0E001C0D4
:100050001D92A238B207E1F7F3D16EC3D1CF0F934F
:100060001F9300E010E098010617170728073907CB
:1000700059F0EFECF7E03197F1F700C000000F5FA7
:100080001F4F2F4F3F4FF0CF1F910F91089523E047
:10009000969587952A95E1F790FD809508950F92A2
:1000A0000FB60F928F939F93809177008ABD0AB409
:1000B00007FE04C08AB5809378000FD18091750047
:1000C0009091760001969093760080937500509BF6
:1000D00010C0519B08C0C0E8C8BD18BCFED0C8BD48
:1000E00084E088BD25C010927700519A17BC10B8E3
:1000F0001FC0519B08C089E087BD80E280B951983C
:1001000080E888BD18BC2F933F93209173003091F5
:1001100074008091660090916700820F931F909306
:10012000740080937300B3DF809377003F912F9129
:100130009F918F910F900FBE0F90189580E283BD15
:100140008AB780628ABFD5988BB780628BBFDD9AF1
:100150000EB47894000000000000000000000000D1
:10016000000000000000000000000000000000008F
:10017000000000000000000000000000000000007F
:10018000000000000000000000000000000000006F
:10019000000000000000000000000000000000005F
:1001A000000000000000000000000000000000004F
:1001B0000000000080917A00D59ADD98801908959A
:1001C00080E483BD8AB780628ABFD6988BB780628D
:1001D0008BBFDE9A0EB4789400000000000000008F
:1001E000000000000000000000000000000000000F
:1001F00000000000000000000000000000000000FF
:1002000000000000000000000000000000000000EE
:1002100000000000000000000000000000000000DE
:1002200000000000000000000000000000000000CE
:10023000000000000000000080917A00D69ADE984D
:100240008019089580E883BD8AB780628ABFD798F5
:100250008BB780628BBFDF9A0EB4789400000000E9
:10026000000000000000000000000000000000008E
:10027000000000000000000000000000000000007E
:10028000000000000000000000000000000000006E
:10029000000000000000000000000000000000005E
:1002A000000000000000000000000000000000004E
:1002B00000000000000000000000000080917A00B3
:1002C000D79ADF98801908958F938EB580937A001E
:1002D0008BB78F7D8BBF8F91189580916200853091
:1002E000B9F42CDF80937E0090917B00981728F45E
:1002F00090917B009F5F90937B0090917B0089178A
:1003000028F480917B00815080937B0086E02FC091
:100310008630B9F455DF80937F0090917C00981768
:1003200028F490917C009F5F90937C0090917C00DA
:10033000891728F480917C00815080937C0087E0AD
:1003400016C080DF8093800090917D00981728F47C
:1003500090917D009F5F90937D0090917D00891723
:1003600028F480917D00815080937D0085E080930A
:100370006200089590917B00905120917C00205163
:1003800080917D0080519217F0F49817E0F4322F9D
:10039000391B282F291BE22FF0E0A32FB0E02317F1
:1003A00040F4CF016EE170E08FD1BD019ED1625E5D
:1003B00042C0CD016EE170E087D1BF0196D18AE5E0
:1003C000861B682F2DC02817D0F4392F321B821BB3
:1003D000282FA32FB0E0E82FF0E0831740F4CF01DF
:1003E0006EE170E071D1BD0180D186E922C0CD01FE
:1003F0006EE170E069D1BF0178D1665A11C0322F29
:10040000381B292F281BE32FF0E0A22FB0E0321772
:1004100048F4CF016EE170E057D1BD0166D16A5654
:10042000322F09C0CD016EE170E04ED1BF015DD128
:100430008EE1861B682F60937900309381000895C8
:1004400083E087BBF89480E888BD18BC81BF7894AE
:1004500087B3836087BB87B3806387BB10BE81E0AF
:100460008FBD89E087BD80E280B916BC8FEF8BBD60
:100470001ABC19BC89B7846089BF85B7877E85BFE0
:10048000F89485B7806285BF789487B3837B87BBF8
:100490008AB3807E8ABB88B38C6488BB8BB38F6140
:1004A0008BBB42EB442E512CC8EAD1E005E611E0AB
:1004B0005DE3E52EFF24F3946BE1C62EDD24D39497
:1004C0007EEEA72EB12CE4ED8E2E912C3FE9632E0B
:1004D000712C3324339429B336B386B346B33470C6
:1004E0008870832B880F880F880F2F71982F922B7D
:1004F000842F8074880F892B80958BB9599B02C0FB
:10050000C19A01C0C198589B02C0C09A01C0C0984E
:1005100088958091640090916500009729F09093F0
:100520006700809366003CC0589B05C070926700CE
:100530006092660035C0599B05C05092670040929A
:1005400066002EC05A9B05C090926700809266009C
:1005500027C05B9B05C0B0926700A092660020C0D8
:100560005C9B05C0D0926700C092660019C05D9B7D
:1005700005C0F0926700E092660012C05E9B05C065
:1005800010936700009366000BC05F9B05C0D0937B
:100590006700C093660004C0109267001092660066
:1005A0008091660090916700892B11F4509A01C0E8
:1005B00050988895DFDE889520918100243094F052
:1005C0008091640090916500892B11F4283054F0DB
:1005D0008091790090E08C599F4F909365008093B3
:1005E000640004C0109265001092640088958BB17D
:1005F000811145C024300CF442C080916E002091DE
:100600007900811107C020936D0010926C00309228
:100610006E0037C0822F90E030916D00831B9109EE
:100620008B3591051CF0845B910906C0863A3FEF3B
:10063000930714F48C549F4F90916C00890F873E60
:1006400018F480936C0002C010926C0080916C00D2
:10065000853B28F0845B80936C0081E001C080E0E2
:1006600020936D00882369F030926B0080917500B3
:100670009091760090936A008093690002C0109276
:100680006E0080916B00882309F425CF809175005E
:10069000909176002091690030916A00821B930B43
:1006A00088392AE392076CF4880F892F881F990BE9
:1006B000807F9927845D9E4F9093650080936400AE
:1006C00005CF10926B0002CF0024552704C0080EFE
:1006D000591F880F991F009729F076956795B8F3F1
:1006E0007105B9F7802D952F089597FB072E16F405
:1006F000009406D077FD08D00BD007FC05D03EF45F
:10070000909581959F4F0895709561957F4F0895BD
:10071000AA1BBB1B51E107C0AA1FBB1FA617B70727
:1007200010F0A61BB70B881F991F5A95A9F7809543
:0C0730009095BC01CD010895F894FFCF16
:04073C0001000500B3
:00000001FF
